{
  "contractName": "Invoices",
  "abi": [
    {
      "inputs": [],
      "payable": false,
      "stateMutability": "nonpayable",
      "type": "constructor"
    },
    {
      "anonymous": false,
      "inputs": [
        {
          "indexed": true,
          "internalType": "address",
          "name": "_from",
          "type": "address"
        },
        {
          "indexed": false,
          "internalType": "uint256",
          "name": "value",
          "type": "uint256"
        }
      ],
      "name": "monthlyGSTPayed",
      "type": "event"
    },
    {
      "anonymous": false,
      "inputs": [
        {
          "indexed": false,
          "internalType": "uint32",
          "name": "invoiceNo",
          "type": "uint32"
        }
      ],
      "name": "newInvoiceGenerated",
      "type": "event"
    },
    {
      "constant": false,
      "inputs": [
        {
          "internalType": "uint32",
          "name": "_invoiceNo",
          "type": "uint32"
        },
        {
          "internalType": "string",
          "name": "_prodName",
          "type": "string"
        },
        {
          "internalType": "string",
          "name": "_date",
          "type": "string"
        },
        {
          "internalType": "uint16",
          "name": "_prodQuantity",
          "type": "uint16"
        },
        {
          "internalType": "uint32",
          "name": "_unitPrice",
          "type": "uint32"
        },
        {
          "internalType": "uint8",
          "name": "_gstPercentage",
          "type": "uint8"
        }
      ],
      "name": "genInvoice",
      "outputs": [],
      "payable": false,
      "stateMutability": "nonpayable",
      "type": "function"
    },
    {
      "constant": true,
      "inputs": [
        {
          "internalType": "uint32",
          "name": "_invoiceNo",
          "type": "uint32"
        }
      ],
      "name": "getProductDetails",
      "outputs": [
        {
          "internalType": "uint32",
          "name": "invoiceNo",
          "type": "uint32"
        },
        {
          "internalType": "string",
          "name": "prodName",
          "type": "string"
        },
        {
          "internalType": "string",
          "name": "date",
          "type": "string"
        },
        {
          "internalType": "uint16",
          "name": "prodQuantity",
          "type": "uint16"
        },
        {
          "internalType": "uint32",
          "name": "unitPrice",
          "type": "uint32"
        }
      ],
      "payable": false,
      "stateMutability": "view",
      "type": "function"
    },
    {
      "constant": true,
      "inputs": [
        {
          "internalType": "uint32",
          "name": "_invoiceNo",
          "type": "uint32"
        }
      ],
      "name": "getPriceDetails",
      "outputs": [
        {
          "internalType": "uint8",
          "name": "gstPercentage",
          "type": "uint8"
        },
        {
          "internalType": "uint32",
          "name": "gstAmount",
          "type": "uint32"
        },
        {
          "internalType": "uint32",
          "name": "totalPrice",
          "type": "uint32"
        }
      ],
      "payable": false,
      "stateMutability": "view",
      "type": "function"
    },
    {
      "constant": false,
      "inputs": [],
      "name": "getMonthlyGST",
      "outputs": [
        {
          "internalType": "uint64",
          "name": "_monthlyGST",
          "type": "uint64"
        },
        {
          "internalType": "bool",
          "name": "canPay",
          "type": "bool"
        }
      ],
      "payable": false,
      "stateMutability": "nonpayable",
      "type": "function"
    },
    {
      "constant": false,
      "inputs": [],
      "name": "payMonthlyGST",
      "outputs": [],
      "payable": true,
      "stateMutability": "payable",
      "type": "function"
    }
  ],
  "bytecode": "0x608060405234801561001057600080fd5b50737ce1628f5f60287b28653435ae1c0c3ff5969ada600260006101000a81548173ffffffffffffffffffffffffffffffffffffffff021916908373ffffffffffffffffffffffffffffffffffffffff160217905550610c1c806100756000396000f3fe60806040526004361061004a5760003560e01c806328d5b69a1461004f5780635f02f832146101aa57806378b3182814610344578063cc8d1cf91461038e578063e195b8641461040f575b600080fd5b34801561005b57600080fd5b5061008e6004803603602081101561007257600080fd5b81019080803563ffffffff169060200190929190505050610419565b604051808663ffffffff1663ffffffff16815260200180602001806020018561ffff1661ffff1681526020018463ffffffff1663ffffffff168152602001838103835287818151815260200191508051906020019080838360005b838110156101045780820151818401526020810190506100e9565b50505050905090810190601f1680156101315780820380516001836020036101000a031916815260200191505b50838103825286818151815260200191508051906020019080838360005b8381101561016a57808201518184015260208101905061014f565b50505050905090810190601f1680156101975780820380516001836020036101000a031916815260200191505b5097505050505050505060405180910390f35b3480156101b657600080fd5b50610342600480360360c08110156101cd57600080fd5b81019080803563ffffffff169060200190929190803590602001906401000000008111156101fa57600080fd5b82018360208201111561020c57600080fd5b8035906020019184600183028401116401000000008311171561022e57600080fd5b91908080601f016020809104026020016040519081016040528093929190818152602001838380828437600081840152601f19601f8201169050808301925050505050505091929192908035906020019064010000000081111561029157600080fd5b8201836020820111156102a357600080fd5b803590602001918460018302840111640100000000831117156102c557600080fd5b91908080601f016020809104026020016040519081016040528093929190818152602001838380828437600081840152601f19601f820116905080830192505050505050509192919290803561ffff169060200190929190803563ffffffff169060200190929190803560ff169060200190929190505050610647565b005b34801561035057600080fd5b5061035961092a565b604051808367ffffffffffffffff1667ffffffffffffffff168152602001821515151581526020019250505060405180910390f35b34801561039a57600080fd5b506103cd600480360360208110156103b157600080fd5b81019080803563ffffffff169060200190929190505050610997565b604051808460ff1660ff1681526020018363ffffffff1663ffffffff1681526020018263ffffffff1663ffffffff168152602001935050505060405180910390f35b610417610a3f565b005b6000606080600080600360008763ffffffff1663ffffffff16815260200190815260200160002060000160009054906101000a900463ffffffff16600360008863ffffffff1663ffffffff168152602001908152602001600020600101600360008963ffffffff1663ffffffff168152602001908152602001600020600201600360008a63ffffffff1663ffffffff16815260200190815260200160002060030160009054906101000a900461ffff16600360008b63ffffffff1663ffffffff16815260200190815260200160002060030160029054906101000a900463ffffffff16838054600181600116156101000203166002900480601f0160208091040260200160405190810160405280929190818152602001828054600181600116156101000203166002900480156105915780601f1061056657610100808354040283529160200191610591565b820191906000526020600020905b81548152906001019060200180831161057457829003601f168201915b50505050509350828054600181600116156101000203166002900480601f01602080910402602001604051908101604052809291908181526020018280546001816001161561010002031660029004801561062d5780601f106106025761010080835404028352916020019161062d565b820191906000526020600020905b81548152906001019060200180831161061057829003601f168201915b505050505092509450945094509450945091939590929450565b60008060009054906101000a900463ffffffff1663ffffffff16141561066f57426001819055505b600060648260ff168561ffff1685020263ffffffff168161068c57fe5b0490506000818561ffff1685020190506040518061012001604052808963ffffffff1681526020018881526020018781526020018661ffff1681526020018563ffffffff1681526020018460ff1681526020018363ffffffff1681526020018263ffffffff16815260200160001515815250600360008a63ffffffff1663ffffffff16815260200190815260200160002060008201518160000160006101000a81548163ffffffff021916908363ffffffff1602179055506020820151816001019080519060200190610760929190610b42565b50604082015181600201908051906020019061077d929190610b42565b5060608201518160030160006101000a81548161ffff021916908361ffff16021790555060808201518160030160026101000a81548163ffffffff021916908363ffffffff16021790555060a08201518160030160066101000a81548160ff021916908360ff16021790555060c08201518160030160076101000a81548163ffffffff021916908363ffffffff16021790555060e082015181600301600b6101000a81548163ffffffff021916908363ffffffff16021790555061010082015181600301600f6101000a81548160ff02191690831515021790555090505060008081819054906101000a900463ffffffff168092919060010191906101000a81548163ffffffff021916908363ffffffff160217905550508163ffffffff16600060048282829054906101000a900467ffffffffffffffff160192506101000a81548167ffffffffffffffff021916908367ffffffffffffffff1602179055507f0a86c9dc38617771be793495b6effe6d19a953e5f47234cd50e1a18d8060cea488604051808263ffffffff1663ffffffff16815260200191505060405180910390a15050505050505050565b6000806000603c6001540142111561096a5760006001905060008060049054906101000a900467ffffffffffffffff169050808294509450505050610993565b600080905060008060049054906101000a900467ffffffffffffffff1690508082945094505050505b9091565b6000806000600360008563ffffffff1663ffffffff16815260200190815260200160002060030160069054906101000a900460ff16600360008663ffffffff1663ffffffff16815260200190815260200160002060030160079054906101000a900463ffffffff16600360008763ffffffff1663ffffffff168152602001908152602001600020600301600b9054906101000a900463ffffffff169250925092509193909250565b600260009054906101000a900473ffffffffffffffffffffffffffffffffffffffff1673ffffffffffffffffffffffffffffffffffffffff166108fc349081150290604051600060405180830381858888f19350505050158015610aa7573d6000803e3d6000fd5b5060008060046101000a81548167ffffffffffffffff021916908367ffffffffffffffff16021790555060008060006101000a81548163ffffffff021916908363ffffffff1602179055503373ffffffffffffffffffffffffffffffffffffffff167f58ecf00a2e692cba03a80470bb52cb2678cd56f8205b1a2fc8559a6f3a56070f346040518082815260200191505060405180910390a2565b828054600181600116156101000203166002900490600052602060002090601f016020900481019282601f10610b8357805160ff1916838001178555610bb1565b82800160010185558215610bb1579182015b82811115610bb0578251825591602001919060010190610b95565b5b509050610bbe9190610bc2565b5090565b610be491905b80821115610be0576000816000905550600101610bc8565b5090565b9056fea265627a7a7231582042b468e50817e09966a3c18f957043694884ab10fca53b9cd1c7db3a39a3930664736f6c63430005100032",
  "source": "pragma solidity ^0.5.16;\r\n\r\ncontract Invoices {\r\n    uint32 serialNo;\r\n    uint64 monthlyGST;\r\n    uint256 start;\r\n    address payable governmentAddress;\r\n    event newInvoiceGenerated(uint32 invoiceNo);\r\n    event monthlyGSTPayed(address indexed _from, uint value);\r\n    struct Invoice {\r\n        uint32 invoiceNo;\r\n        string prodName;\r\n        string date;\r\n        uint16 prodQuantity;\r\n        uint32 unitPrice;\r\n        uint8 gstPercentage;\r\n        uint32 gstAmount;\r\n        uint32 totalPrice;\r\n        bool gstPaid;\r\n    }\r\n    constructor() public\r\n    {\r\n        governmentAddress = 0x7cE1628f5f60287b28653435Ae1c0c3Ff5969AdA;\r\n\r\n    }\r\n    mapping(uint32 => Invoice) invoiceList;\r\n\r\n    function genInvoice(\r\n        uint32 _invoiceNo,\r\n        string memory _prodName,\r\n        string memory _date,\r\n        uint16 _prodQuantity,\r\n        uint32 _unitPrice,\r\n        uint8 _gstPercentage\r\n    ) public {\r\n        if (serialNo == 0) {\r\n            start = now;\r\n        }\r\n        uint32 _gstAmount = (_unitPrice * _prodQuantity * _gstPercentage) / 100;\r\n        uint32 _totalPrice = (_unitPrice * _prodQuantity) + _gstAmount;\r\n        invoiceList[_invoiceNo] = Invoice(\r\n            _invoiceNo,\r\n            _prodName,\r\n            _date,\r\n            _prodQuantity,\r\n            _unitPrice,\r\n            _gstPercentage,\r\n            _gstAmount,\r\n            _totalPrice,\r\n            false\r\n        );\r\n        serialNo++;\r\n        monthlyGST += _gstAmount;\r\n        emit newInvoiceGenerated(_invoiceNo);\r\n    }\r\n\r\n    function getProductDetails(uint32 _invoiceNo)\r\n        public\r\n        view\r\n        returns (\r\n            uint32 invoiceNo,\r\n            string memory prodName,\r\n            string memory date,\r\n            uint16 prodQuantity,\r\n            uint32 unitPrice\r\n        )\r\n    {\r\n        return (\r\n            invoiceList[_invoiceNo].invoiceNo,\r\n            invoiceList[_invoiceNo].prodName,\r\n            invoiceList[_invoiceNo].date,\r\n            invoiceList[_invoiceNo].prodQuantity,\r\n            invoiceList[_invoiceNo].unitPrice\r\n        );\r\n    }\r\n\r\n    function getPriceDetails(uint32 _invoiceNo)\r\n        public\r\n        view\r\n        returns (\r\n            uint8 gstPercentage,\r\n            uint32 gstAmount,\r\n            uint32 totalPrice\r\n        )\r\n    {\r\n        return (\r\n            invoiceList[_invoiceNo].gstPercentage,\r\n            invoiceList[_invoiceNo].gstAmount,\r\n            invoiceList[_invoiceNo].totalPrice\r\n        );\r\n    }\r\n\r\n    function getMonthlyGST() public returns (uint64 _monthlyGST, bool canPay) {\r\n        bool canPay;\r\n        if (now > start + 1 * 1 minutes) {\r\n            bool canPay = true;\r\n            uint64 _monthlyGST = monthlyGST;\r\n            return (_monthlyGST, canPay);\r\n        } else {\r\n            bool canPay = false;\r\n            uint64 _monthlyGST = monthlyGST;\r\n            return (_monthlyGST, canPay);\r\n        }\r\n    }\r\n\r\n    function payMonthlyGST() external payable {\r\n        governmentAddress.transfer(msg.value);\r\n        monthlyGST = 0;\r\n        serialNo = 0;\r\n        emit monthlyGSTPayed(msg.sender,msg.value);\r\n    }\r\n}\r\n",
  "sourcePath": "D:\\GST-CHAIN\\contracts\\Invoices.sol",
  "compiler": {
    "name": "solc",
    "version": "0.5.16+commit.9c3226ce.Emscripten.clang"
  },
  "schemaVersion": "3.2.0",
  "updatedAt": "2020-12-24T04:59:20.556Z",
  "networkType": "ethereum",
  "devdoc": {
    "methods": {}
  },
  "userdoc": {
    "methods": {}
  }
}